{
  "_format": "hh-sol-artifact-1",
  "contractName": "Donation",
  "sourceName": "contracts/Donation.sol",
  "abi": [
    {
      "inputs": [],
      "stateMutability": "nonpayable",
      "type": "constructor"
    },
    {
      "anonymous": false,
      "inputs": [
        {
          "indexed": true,
          "internalType": "address",
          "name": "donor",
          "type": "address"
        },
        {
          "indexed": false,
          "internalType": "uint256",
          "name": "amount",
          "type": "uint256"
        },
        {
          "indexed": false,
          "internalType": "string",
          "name": "cause",
          "type": "string"
        }
      ],
      "name": "DonationMade",
      "type": "event"
    },
    {
      "inputs": [
        {
          "internalType": "string",
          "name": "cause",
          "type": "string"
        }
      ],
      "name": "donate",
      "outputs": [],
      "stateMutability": "payable",
      "type": "function"
    },
    {
      "inputs": [],
      "name": "getBalance",
      "outputs": [
        {
          "internalType": "uint256",
          "name": "",
          "type": "uint256"
        }
      ],
      "stateMutability": "view",
      "type": "function"
    },
    {
      "inputs": [],
      "name": "owner",
      "outputs": [
        {
          "internalType": "address",
          "name": "",
          "type": "address"
        }
      ],
      "stateMutability": "view",
      "type": "function"
    },
    {
      "inputs": [],
      "name": "withdraw",
      "outputs": [],
      "stateMutability": "nonpayable",
      "type": "function"
    }
  ],
  "bytecode": "0x6080604052348015600f57600080fd5b50336000806101000a81548173ffffffffffffffffffffffffffffffffffffffff021916908373ffffffffffffffffffffffffffffffffffffffff1602179055506106768061005f6000396000f3fe60806040526004361061003f5760003560e01c806312065fe0146100445780633ccfd60b1461006f5780638da5cb5b14610086578063b5aebc80146100b1575b600080fd5b34801561005057600080fd5b506100596100cd565b604051610066919061029f565b60405180910390f35b34801561007b57600080fd5b506100846100d5565b005b34801561009257600080fd5b5061009b6101cc565b6040516100a891906102fb565b60405180910390f35b6100cb60048036038101906100c69190610470565b6101f0565b005b600047905090565b60008054906101000a900473ffffffffffffffffffffffffffffffffffffffff1673ffffffffffffffffffffffffffffffffffffffff163373ffffffffffffffffffffffffffffffffffffffff1614610163576040517f08c379a000000000000000000000000000000000000000000000000000000000815260040161015a90610516565b60405180910390fd5b60008054906101000a900473ffffffffffffffffffffffffffffffffffffffff1673ffffffffffffffffffffffffffffffffffffffff166108fc479081150290604051600060405180830381858888f193505050501580156101c9573d6000803e3d6000fd5b50565b60008054906101000a900473ffffffffffffffffffffffffffffffffffffffff1681565b60003411610233576040517f08c379a000000000000000000000000000000000000000000000000000000000815260040161022a90610582565b60405180910390fd5b3373ffffffffffffffffffffffffffffffffffffffff167f8055909329a96ddf80fb18dde60b1b90058da99c270e0d0960a6633e8313ac29348360405161027b929190610610565b60405180910390a250565b6000819050919050565b61029981610286565b82525050565b60006020820190506102b46000830184610290565b92915050565b600073ffffffffffffffffffffffffffffffffffffffff82169050919050565b60006102e5826102ba565b9050919050565b6102f5816102da565b82525050565b600060208201905061031060008301846102ec565b92915050565b6000604051905090565b600080fd5b600080fd5b600080fd5b600080fd5b6000601f19601f8301169050919050565b7f4e487b7100000000000000000000000000000000000000000000000000000000600052604160045260246000fd5b61037d82610334565b810181811067ffffffffffffffff8211171561039c5761039b610345565b5b80604052505050565b60006103af610316565b90506103bb8282610374565b919050565b600067ffffffffffffffff8211156103db576103da610345565b5b6103e482610334565b9050602081019050919050565b82818337600083830152505050565b600061041361040e846103c0565b6103a5565b90508281526020810184848401111561042f5761042e61032f565b5b61043a8482856103f1565b509392505050565b600082601f8301126104575761045661032a565b5b8135610467848260208601610400565b91505092915050565b60006020828403121561048657610485610320565b5b600082013567ffffffffffffffff8111156104a4576104a3610325565b5b6104b084828501610442565b91505092915050565b600082825260208201905092915050565b7f4f6e6c79206f776e65722063616e207769746864726177000000000000000000600082015250565b60006105006017836104b9565b915061050b826104ca565b602082019050919050565b6000602082019050818103600083015261052f816104f3565b9050919050565b7f446f6e6174696f6e206d757374206265203e2030000000000000000000000000600082015250565b600061056c6014836104b9565b915061057782610536565b602082019050919050565b6000602082019050818103600083015261059b8161055f565b9050919050565b600081519050919050565b60005b838110156105cb5780820151818401526020810190506105b0565b60008484015250505050565b60006105e2826105a2565b6105ec81856104b9565b93506105fc8185602086016105ad565b61060581610334565b840191505092915050565b60006040820190506106256000830185610290565b818103602083015261063781846105d7565b9050939250505056fea264697066735822122083a86945ffb89dd430b07b62be20e93d5ef272ec988bcd08b1893b7818c2831e64736f6c634300081c0033",
  "linkReferences": {},
  "deployedLinkReferences": {}
}